:020000040800F2
:1000000000000220A90E00088D0C0008930C0008C7
:10001000990C00089F0C0008A50C000800000000C7
:10002000000000000000000000000000AB0C000811
:10003000B90C000800000000C70C0008D50C00082F
:10004000F90E0008F90E0008F90E0008F90E000874
:10005000F90E0008F90E0008F90E0008F90E000864
:10006000F90E0008F90E0008F90E0008F90E000854
:10007000F90E0008F90E0008F90E0008F90E000844
:10008000F90E0008F90E0008F90E0008F90E000834
:10009000F90E0008F90E0008F90E0008F90E000824
:1000A000F90E0008F90E0008F90E0008F90E000814
:1000B000F90E0008F90E0008F90E0008F90E000804
:1000C000F90E0008F90E0008F90E0008F90E0008F4
:1000D000F90E0008F90E0008F90E0008F90E0008E4
:1000E000F90E0008F90E0008F90E0008F90E0008D4
:1000F000F90E0008F90E0008F90E0008F90E0008C4
:10010000F90E0008F90E0008F90E0008F90E0008B3
:10011000F90E0008F90E0008F90E0008F90E0008A3
:10012000F90E0008F90E0008F90E0008F90E000893
:10013000F90E00080000000000000000F90E0008A1
:10014000F90E0008F90E0008F90E0008F90E000873
:10015000F90E0008F90E0008F90E0008F90E000863
:10016000F90E0008F90E0008F90E0008F90E000853
:10017000F90E0008F90E0008F90E00080000000052
:1001800000000000F90E0008000000000000000060
:10019000F90E00080000000000000000F90E000841
:1001A000000000000000000000000000F90E000840
:1001B000F90E0008F90E0008F90E0008F90E000803
:0401C000F90E00082C
:1001C40010B5054C237833B9044B13B10448AFF38D
:1001D40000800123237010BD0C00002000000000EB
:1001E4007C30000808B5034B1BB103490348AFF347
:1001F400008008BD00000000100000207C300008D2
:1002040053B94AB9002908BF00281CBF4FF0FF3179
:100214004FF0FF3000F070B9ADF1080C6DE904CE79
:1002240000F006F8DDF804E0DDE9022304B07047CD
:100234002DE9F047089E0D4604460F46002B4AD18F
:100244008A42944665D9B2FA82F343B102FA03FCB6
:10025400C3F120029F4020FA02F217439C404FEA68
:100264001C4E1FFA8CF5B7FBFEF1220C0EFB117726
:1002740042EA074201FB05F090420AD91CEB020254
:1002840001F1FF3780F01C81904240F2198102395C
:100294006244121AA4B2B2FBFEF00EFB102244EA2E
:1002A400024400FB05F5A5420AD91CEB040400F145
:1002B400FF3280F00781A54240F204816444023891
:1002C40040EA0140641B00211EB1DC400023C6E962
:1002D4000043BDE8F0878B4208D9002E00F0ED8082
:1002E4000021C6E900050846BDE8F087B3FA83F1AA
:1002F400002949D1AB4202D3824200F2F880841A29
:1003040065EB030201201746002EE2D0C6E9004740
:10031400DFE702B9FFDEB2FA82F3002B40F09080EF
:100324008A1A4FEA1C471FFA8CFE0121B2FBF7F52B
:1003340007FB1520220C42EA00420EFB05F0904216
:1003440008D91CEB020205F1FF3802D2904200F2F8
:10035400CB804546121AA4B2B2FBF7F007FB102279
:1003640044EA02440EFB00FEA64508D91CEB040433
:1003740000F1FF3202D2A64500F2BB801046A4EB86
:100384000E0440EA05409FE7C1F120078B4022FAA2
:1003940007FC4CEA030C05FA01F420FA07F3FD40CC
:1003A4004FEA1C492343B5FBF9F81FFA8CFE09FBFD
:1003B40018551C0C44EA054408FB0EF5A54202FA44
:1003C40001F200FA01F00BD91CEB040408F1FF3A26
:1003D40080F08880A54240F28580A8F10208644438
:1003E400641B9DB2B4FBF9F309FB134445EA0444CE
:1003F40003FB0EFEA64508D91CEB040403F1FF35EC
:100404006CD2A6456AD9023B644443EA0843A3FB81
:100414000295A4EB0E04AC42C846AE4656D353D064
:1004240056B1B0EB080264EB0E0404FA07F7CA40B5
:10043400CC401743C6E9007418460021BDE8F08794
:10044400C3F1200102FA03FC20FA01F225FA01F1BA
:100454009D402A434FEA1C471FFA8CFEB1FBF7F07C
:1004640007FB1015110C41EA054100FB0EF58D4206
:1004740004FA03F408D91CEB010100F1FF382FD270
:100484008D422DD902386144491B92B2B1FBF7F574
:1004940007FB151142EA014205FB0EF1914208D90E
:1004A4001CEB020205F1FF3816D2914214D9023D29
:1004B4006244521A45EA004138E73146304608E7BB
:1004C4003946E6E61046FBE64845A9D2B9EB0208F0
:1004D40065EB0C0E013BA3E74546EAE72B4694E7A0
:1004E4004046D1E7D0467BE7023D624432E7084606
:1004F4000AE76444023842E7704700BF80B582B01F
:1005040000AF0023FB710123BB7100237B71C82260
:1005140000212B4802F084FD4FF0FF3301222849CB
:10052400284802F0B6F90346BB71BB79002B02D010
:100534000023FB713EE0224B1B787B717B799AB2DE
:100544004FF0FF3320491F4802F0A3F90346BB7163
:10055400BB79002B02D00023FB712BE0184B5B7896
:10056400103B062B24D801A252F823F08D05000875
:10057400950500089D050008B5050008A5050008B7
:10058400AD050008AD0500080D4800F087F811E03E
:100594000B4800F0BBF80DE0094800F0F3F809E05F
:1005A400074800F07BF805E0054800F051F901E048
:1005B4000023FB7100BF18460837BD4680BD00BF4D
:1005C40028000020F80000202900002080B588B011
:1005D40000AFF860B9607A600023FB7700233B61C9
:1005E4000023BB610023FB750FE0FB7DFA68134415
:1005F4001B783B6107F1100301221946104800F0F3
:10060400EEFDB861FB7D0133FB75FB7DBA689A4250
:10061400EBD80B4B1B689A68094B1B6842F001022C
:100624009A607A68BB699A4202D10123FB7701E0A0
:100634000023FB77FB7F18462037BD4680BD00BFF3
:10064400F000002080B584B000AF0346FB710023A6
:10065400BB81CD233B73FB797B7307F10C014FF016
:10066400FF330222034802F089F800BF1037BD4669
:1006740080BD00BFF800002080B582B000AFAB237E
:10068400FB71F91D4FF0FF330122034802F076F8A5
:1006940000BF0837BD4680BDF800002080B586B095
:1006A40000AF7860174BFB600023FB8200233B61A3
:1006B4007B681B789BB20133FB82FB8A043B7A681C
:1006C40013441B683B61FB8A043B3A69194678680A
:1006D400FFF77CFF0346012B0DD100F05DF90420E8
:1006E400FFF7B0FF07F10C014FF0FF330422064877
:1006F40002F044F801E0FFF7BFFF00BF1837BD4622
:1007040080BD00BF64010101F800002080B586B0FF
:1007140000AF7860194A07F1080392E803001860F3
:10072400043319800023FB8200233B617B681B7820
:100734009BB20133FB82FB8A043B7A6813441B6837
:100744003B61FB8A043B3A6919467868FFF73EFF30
:100754000346012B0BD10620FFF774FF07F10801B4
:100764004FF0FF330422064802F008F801E0FFF7D7
:1007740083FF00BF1837BD4680BD00BF943000081A
:10078400F800002080B586B000AF78600023FB81BC
:100794000023FB8200233B617B681B789BB20133FF
:1007A400FB82FB8A043B7A6813441B683B61FB8A27
:1007B400043B3A6919467868FFF708FF0346012BA2
:1007C40012D10C4B1B689BB2C3F30B039BB2FB818E
:1007D4000220FFF737FF07F10E014FF0FF3302222B
:1007E400054801F0CBFF01E0FFF746FF00BF1837D3
:1007F400BD4680BD002004E0F800002080B485B030
:1008040000AF78600023FB737B68B3F1006F06D3FD
:100814007B680D4A934202D80123FB730CE07B688A
:10082400B3F1005F06D37B68084A934202D80123E0
:10083400FB7301E00023FB73FB7B18461437BD46B2
:100844005DF8047B704700BF000008080000022028
:1008540080B586B000AF78600023FB7200237B6113
:100864000023FB740023BB7200233B820023FB6044
:10087400234B1B789BB201333B823B8A043B204AC7
:1008840013441B68FB603B8A043BFA6819461C4806
:10089400FFF79CFE0346012B2BD10120FFF7D2FE6C
:1008A400184B1B687B617B689B79FB747869FFF745
:1008B400A5FF0346FB72FB7A012B11D17B6807333A
:1008C400FA7C7969184600F021F80346BB7207F1F7
:1008D4000A014FF0FF3301220B4801F04FFF0AE0F9
:1008E40007F10B014FF0FF330122074801F046FFE7
:1008F40001E0FFF7C1FE00BF1837BD4680BD00BF51
:10090400280000202A000020F8000020B0B588B09C
:1009140000AFF860B9601346FB710023BB6100238C
:10092400FB750123BB750023FB7700F0D7FC002384
:10093400BB7700237B7722E07B7FBA681344BB61DB
:10094400BB7F5B00FA6813441B889BB200221C46E1
:10095400154622462B46B969012000F06BFC03467C
:10096400BB75BB7D002B02D00023FB7701E0012384
:10097400FB77BB7F0133BB777B7F02337B77FB79CC
:100984005B08DBB2BA7F9A42D6D300F0C9FCFB7F86
:1009940018462037BD46B0BD80B586B000AF0E4BBB
:1009A4007B610E4B3B613B69FB6001F001FB7B69A2
:1009B4007B607B6883F3088800BFFB68984700234B
:1009C400BB60074B044A1A60044BBB60BB68984782
:1009D40000BF1837BD4680BD0080000804800008B1
:1009E40008ED00E080B500AF064B074A1A600548E1
:1009F40000F0D9FB0346002B01D000F017F900BF2B
:100A040080BD00BFF00000200030024080B485B0FB
:100A140000AF78607B681B680B4A93420DD10023BA
:100A2400FB600A4B1B6B094A43F480531363074B67
:100A34001B6B03F48053FB60FB6800BF1437BD4697
:100A44005DF8047B704700BF00300240003802406C
:100A540080B58AB000AF07F1140300221A605A600F
:100A64009A60DA601A6100233B612D4B1B6B2C4AA0
:100A740043F0040313632A4B1B6B03F004033B6131
:100A84003B690023FB60264B1B6B254A43F0800324
:100A94001363234B1B6B03F08003FB60FB68002391
:100AA400BB601F4B1B6B1E4A43F0010313631C4BBB
:100AB4001B6B03F00103BB60BB6800237B60184B16
:100AC4001B6B174A43F002031363154B1B6B03F0B4
:100AD40002037B607B6800222121124800F004FF9E
:100AE4004FF400537B614FF40413BB610023FB619B
:100AF40007F1140319460C4800F062FD21237B61C1
:100B04000123BB610023FB6100233B6207F1140353
:100B14001946044800F054FD00BF2837BD4680BD87
:100B240000380240000002400008024080B500AFD7
:100B340000F0E2F900F00CF8FFF78AFF00F0E0F8AB
:100B440000F008F9FFF74EFFFFF7D8FCFCE70000C0
:100B540080B594B000AF07F11C033422002118467D
:100B640002F05EFA07F1080300221A605A609A60E4
:100B7400DA601A6100237B602A4B1B6C294A43F01C
:100B840080531364274B1B6C03F080537B607B689A
:100B940000233B60244B1B6823F44043224A43F464
:100BA40080431360204B1B6803F440433B603B6865
:100BB4000223FB610123BB621023FB6202237B63DC
:100BC4000023BB631023FB634FF4A8733B6404232B
:100BD4007B640223BB640223FB6407F11C031846F5
:100BE40001F0DEFA0346002B01D000F01FF80F23BA
:100BF400BB600223FB6000233B614FF480537B61A5
:100C04000023BB6107F108030221184600F086FEA9
:100C14000346002B01D000F009F800BF5037BD4651
:100C240080BD00BF003802400070004080B400AFB7
:100C340072B600BFFEE7000080B582B000AF0023AB
:100C44007B60104B5B6C0F4A43F4804353640D4B41
:100C54005B6C03F480437B607B6800233B60094B3F
:100C64001B6C084A43F080531364064B1B6C03F05F
:100C740080533B603B68072000F062FA00BF0837EE
:100C8400BD4680BD0038024080B400AFFEE780B4AA
:100C940000AFFEE780B400AFFEE780B400AFFEE72C
:100CA40080B400AFFEE780B400AF00BFBD465DF87E
:100CB400047B704780B400AF00BFBD465DF8047B81
:100CC400704780B400AF00BFBD465DF8047B704739
:100CD40080B500AF00F062F900BF80BD80B400AF02
:100CE400064BD3F88830054A43F47003C2F88830C1
:100CF40000BFBD465DF8047B704700BF00ED00E017
:100D040080B500AF114B124A1A60104B4FF4E13218
:100D14005A600E4B00229A600C4B0022DA600B4B97
:100D240000221A61094B0C225A61084B00229A6175
:100D3400064B0022DA61054801F0D0FC0346002B83
:100D440001D0FFF773FF00BF80BD00BFF800002093
:100D54000044004080B500AF114B124A1A60104B9A
:100D64004FF4E1325A600E4B00229A600C4B002281
:100D7400DA600B4B00221A61094B0C225A61084BB2
:100D840000229A61064B0022DA61054801F0A6FCB4
:100D94000346002B01D0FFF749FF00BF80BD00BF11
:100DA400400100200048004080B58CB000AF78605E
:100DB40007F11C0300221A605A609A60DA601A6113
:100DC4007B681B68324A93422CD10023BB61314BB0
:100DD4001B6C304A43F4003313642E4B1B6C03F436
:100DE4000033BB61BB6900237B612A4B1B6B294A1F
:100DF40043F001031363274B1B6B03F001037B6177
:100E04007B690C23FB6102233B6200237B62032387
:100E1400BB620723FB6207F11C0319461E4800F05E
:100E2400CFFB31E07B681B681C4A93422CD1002322
:100E34003B61184B1B6C174A43F480231364154B16
:100E44001B6C03F480233B613B690023FB60114B63
:100E54001B6B104A43F0040313630E4B1B6B03F02C
:100E64000403FB60FB684FF44063FB6102233B62B5
:100E740000237B620323BB620723FB6207F11C038D
:100E84001946074800F09CFB00BF3037BD4680BDC3
:100E94000044004000380240000002400048004086
:100EA40000080240DFF834D0FFF718FF0C480D4962
:100EB4000D4A002302E0D458C4500433C4188C42B1
:100EC400F9D30A4A0A4C002301E013600432A24217
:100ED400FBD302F0ADF8FFF729FE704700000220B3
:100EE400000000200C000020C43000080C0000208A
:100EF400AC010020FEE7000080B500AF0E4B1B687C
:100F04000D4A43F4007313600B4B1B680A4A43F405
:100F140080631360084B1B68074A43F480731360B3
:100F2400032000F00DF9002000F008F8FFF784FE1C
:100F34000023184680BD00BF003C024080B582B04B
:100F440000AF7860124B1A68124B1B7819464FF4A5
:100F54007A73B3FBF1F3B2FBF3F3184600F017F91D
:100F64000346002B01D001230EE07B680F2B0AD827
:100F7400002279684FF0FF3000F0EDF8064A7B68F4
:100F84001360002300E0012318460837BD4680BDE6
:100F940000000020080000200400002080B400AFFE
:100FA400064B1B781A46064B1B681344044A13600D
:100FB40000BFBD465DF8047B704700BF08000020F9
:100FC4008801002080B400AF034B1B681846BD465F
:100FD4005DF8047B704700BF8801002080B485B0B1
:100FE40000AF78607B6803F00703FB600C4BDB68A1
:100FF400BB60BA684FF6FF031340BB60FB681A027C
:10100400BB68134343F0BF6343F40033BB60044A3B
:10101400BB68D36000BF1437BD465DF8047B7047DE
:1010240000ED00E080B400AF044BDB681B0A03F062
:1010340007031846BD465DF8047B704700ED00E0E9
:1010440080B483B000AF03463960FB7197F9073071
:10105400002B0ADB3B68DAB20C4997F9073012011E
:10106400D2B20B4483F800230AE03B68DAB20849A1
:10107400FB7903F00F03043B1201D2B20B441A763E
:1010840000BF0C37BD465DF8047B704700E100E00B
:1010940000ED00E080B489B000AFF860B9607A6018
:1010A400FB6803F00703FB61FB69C3F10703042B2F
:1010B40028BF0423BB61FB690433062B02D9FB69F7
:1010C400033B00E000237B614FF0FF32BB6902FA6F
:1010D40003F3DA43BB681A407B699A404FF0FF314F
:1010E4007B6901FA03F3D9437B680B401343184629
:1010F4002437BD465DF8047B7047000080B582B09C
:1011040000AF78607B68013BB3F1807F01D301239A
:101114000FE00A4A7B68013B53600F214FF0FF3018
:10112400FFF78EFF054B00229A60044B07221A60DA
:10113400002318460837BD4680BD00BF10E000E01C
:1011440080B582B000AF78607868FFF747FF00BFD2
:101154000837BD4680BD80B586B000AF0346B96090
:101164007A60FB7300237B61FFF75CFF78617A6828
:10117400B9687869FFF78EFF024697F90F30114678
:101184001846FFF75DFF00BF1837BD4680BD80B528
:1011940082B000AF78607868FFF7B0FF0346184666
:1011A4000837BD4680BD80B582B000AF78607B68EB
:1011B400002B01D101230EE07B685B79DBB2002BAD
:1011C40005D17B6800221A717868FFF71FFC7B68E1
:1011D40001225A71002318460837BD4680BD80B4E9
:1011E40087B000AFF860B9607A6000233B61FB68A8
:1011F40002225A7100237B610AE07B699B00BA6872
:101204001A44FB681B6812681A607B6901337B61AE
:101214007A697B689A42F0D3FB681B681B683B6160
:10122400FB6801225A713B6918461C37BD465DF8BC
:10123400047B704780B586B000AFF860B960C7E939
:1012440000230123FB75234B1B7E012B01D10223B9
:101254003BE0204B01221A764CF2503000F070F83B
:101264000346FB75FB7D002B2BD1FB68002B05D1BE
:101274003B781946B86800F01BF916E0FB68012BAF
:1012840005D13B881946B86800F0EEF80DE0FB681C
:10129400022B05D13B681946B86800F0C3F804E096
:1012A400D7E90023B86800F08BF84CF2503000F016
:1012B40047F80346FB75084B1B69074A23F00103F3
:1012C4001361044B00221A76FB7D18461837BD467D
:1012D40080BD00BF8C010020003C024080B483B07C
:1012E40000AF0023FB710B4B1B69002B0BDA094B7E
:1012F400094A5A60074B094A5A60064B1B69002B7E
:1013040001DA0123FB71FB7918460C37BD465DF801
:10131400047B7047003C024023016745AB89EFCD55
:1013240080B400AF054B1B69044A43F000431361CA
:1013340000231846BD465DF8047B7047003C02401C
:1013440080B584B000AF78600023FB601A4B0022A4
:10135400DA61FFF737FEF86010E07B68B3F1FF3F16
:101364000CD07B68002B07D0FFF72CFE0246FB68ED
:10137400D31A7A689A4201D2032319E00F4BDB682F
:1013840003F48033002BE8D10C4BDB6803F001033A
:10139400002B02D0094B0122DA60084BDB6803F40E
:1013A400F973002B03D000F0A5F8012300E000231B
:1013B40018461037BD4680BD8C010020003C024019
:1013C40080B485B000AFF860C7E90023144B1B69F3
:1013D400134A23F440731361114B1B69104A43F4FD
:1013E400407313610E4B1B690D4A43F001031361F3
:1013F400FB683A681A60BFF36F8F00BFD7E900013A
:101404004FF000024FF000030A000023F968043192
:1014140013460B6000BF1437BD465DF8047B70476C
:10142400003C024080B483B000AF786039600D4B5B
:101434001B690C4A23F4407313610A4B1B69094A64
:1014440043F400731361074B1B69064A43F001031D
:1014540013617B683A681A6000BF0C37BD465DF8BB
:10146400047B7047003C024080B483B000AF7860D6
:101474000B467B800D4B1B690C4A23F440731361AC
:101484000A4B1B69094A43F480731361074B1B69B8
:10149400064A43F0010313617B687A881A8000BF0F
:1014A4000C37BD465DF8047B704700BF003C02402A
:1014B40080B483B000AF78600B46FB700C4B1B69A3
:1014C4000B4A23F440731361094B094A1B691361E6
:1014D400074B1B69064A43F0010313617B68FA78E2
:1014E4001A7000BF0C37BD465DF8047B704700BF1F
:1014F400003C024080B400AF2F4BDB6803F01003C4
:10150400002B08D02D4BDB6943F010032B4AD36129
:10151400294B1022DA60284BDB6803F02003002BF0
:1015240008D0264BDB6943F00803244AD361224BDD
:101534002022DA60204BDB6803F04003002B08D044
:101544001E4BDB6943F004031C4AD3611A4B40224F
:10155400DA60194BDB6803F08003002B08D0174BCB
:10156400DB6943F00203154AD361134B8022DA602E
:10157400114BDB6803F48073002B09D00F4BDB693C
:1015840043F001030D4AD3610B4B4FF48072DA60D0
:10159400094BDB6803F00203002B08D0074BDB691F
:1015A40043F02003054AD361034B0222DA6000BFF3
:1015B400BD465DF8047B7047003C02408C0100206E
:1015C40080B489B000AF7860396000237B61002368
:1015D4003B610023BB610023FB6165E10122FB69E0
:1015E40002FA03F37B613B681B687A6913403B6131
:1015F4003A697B699A4240F054813B685B6803F026
:101604000303012B05D03B685B6803F00303022B43
:1016140030D17B689B68BB61FB695B00032202FAE3
:1016240003F3DB43BA691340BB613B68DA68FB69C7
:101634005B0002FA03F3BA691343BB617B68BA69BE
:101644009A607B685B68BB610122FB6902FA03F361
:10165400DB43BA691340BB613B685B681B0903F059
:101664000102FB6902FA03F3BA691343BB617B68A5
:10167400BA695A603B685B6803F00303032B17D015
:101684007B68DB68BB61FB695B00032202FA03F33E
:10169400DB43BA691340BB613B689A68FB695B0032
:1016A40002FA03F3BA691343BB617B68BA69DA606F
:1016B4003B685B6803F00303022B23D1FB69DA0860
:1016C4007B68083253F82230BB61FB6903F00703DF
:1016D4009B000F2202FA03F3DB43BA691340BB6198
:1016E4003B681A69FB6903F007039B0002FA03F3E2
:1016F400BA691343BB61FB69DA087B680832B969CC
:1017040043F822107B681B68BB61FB695B00032202
:1017140002FA03F3DB43BA691340BB613B685B68BD
:1017240003F00302FB695B0002FA03F3BA69134393
:10173400BB617B68BA691A603B685B6803F4403339
:10174400002B00F0AE800023FB605D4B5B6C5C4AB9
:1017540043F4804353645A4B5B6C03F48043FB6053
:10176400FB68584AFB699B08023352F82330BB617B
:10177400FB6903F003039B000F2202FA03F3DB432C
:10178400BA691340BB617B684F4A934225D07B689A
:101794004E4A93421FD07B684D4A934219D07B68CE
:1017A4004C4A934213D07B684B4A93420DD07B68DA
:1017B4004A4A934207D07B68494A934201D106239F
:1017C4000CE007230AE0052308E0042306E00323D2
:1017D40004E0022302E0012300E00023FA6902F09E
:1017E400030292009340BA691343BB613549FB6914
:1017F4009B080233BA6941F823203A4B9B68BB61CA
:101804003B69DB43BA691340BB613B685B6803F423
:101814008013002B03D0BA693B691343BB61314A7F
:10182400BB6993602F4BDB68BB613B69DB43BA69DF
:101834001340BB613B685B6803F40013002B03D0C7
:10184400BA693B691343BB61264ABB69D360254B24
:101854005B68BB613B69DB43BA691340BB613B68AE
:101864005B6803F40033002B03D0BA693B6913436C
:10187400BB611C4ABB6953601A4B1B68BB613B6963
:10188400DB43BA691340BB613B685B6803F4803394
:10189400002B03D0BA693B691343BB61114ABB698E
:1018A4001360FB690133FB61FB690F2B7FF696AE76
:1018B40000BF00BF2437BD465DF8047B704700BFFE
:1018C4000038024000380140000002400004024099
:1018D40000080240000C02400010024000140240C4
:1018E40000180240003C014080B483B000AF78602F
:1018F4000B467B8013467B707B78002B03D07A8861
:101904007B689A6103E07B881A047B689A6100BF54
:101914000C37BD465DF8047B7047000080B584B089
:1019240000AF786039607B68002B01D10123CCE0E3
:10193400684B1B6803F00F033A689A420CD9654B55
:101944003A68D2B21A70634B1B6803F00F033A680B
:101954009A4201D00123B8E07B681B6803F00203BC
:10196400002B20D07B681B6803F00403002B05D0F8
:10197400594B9B68584A43F4E05393607B681B6857
:1019840003F00803002B05D0534B9B68524A43F4E1
:1019940060439360504B9B6823F0F0027B689B6824
:1019A4004D4913438B607B681B6803F00103002BD4
:1019B40044D07B685B68012B07D1474B1B6803F459
:1019C4000033002B19D101237FE07B685B68022B75
:1019D40003D07B685B68032B07D13F4B1B6803F084
:1019E4000073002B09D101236FE03B4B1B6803F00C
:1019F4000203002B01D1012367E0374B9B6823F0DE
:101A040003027B685B68344913438B60FFF7DAFA9F
:101A1400F8600AE0FFF7D6FA0246FB68D31A41F2EF
:101A24008832934201D903234FE02B4B9B6803F088
:101A34000C027B685B689B009A42EBD1254B1B68C8
:101A440003F00F033A689A420CD2224B3A68D2B29E
:101A54001A70204B1B6803F00F033A689A4201D0B6
:101A6400012332E07B681B6803F00403002B08D0D9
:101A7400194B9B6823F4E0527B68DB6816491343D7
:101A84008B607B681B6803F00803002B09D0124BA2
:101A94009B6823F460427B681B69DB000E49134397
:101AA4008B6000F055F802460B4B9B681B0903F052
:101AB4000F030A49CB5C22FA03F3094A1360094B6A
:101AC4001B681846FFF73AFA002318461037BD463C
:101AD40080BD00BF003C0240003802409C3000083A
:101AE400000000200400002080B400AF034B1B68FA
:101AF4001846BD465DF8047B704700BF0000002017
:101B040080B500AFFFF7F0FF0246054B9B689B0AC8
:101B140003F007030349CB5C22FA03F3184680BDA4
:101B240000380240AC30000880B500AFFFF7DCFF9E
:101B34000246054B9B685B0B03F007030349CB5C30
:101B440022FA03F3184680BD00380240AC30000886
:101B54002DE9B04FAEB000AF0023C7F8AC3000237E
:101B6400C7F8B4300023C7F8A8300023C7F8A4305E
:101B74000023C7F8B030CB4B9B6803F00C030C2B4D
:101B840000F2068201A252F823F000BFC51B000830
:101B9400951F0008951F0008951F0008CD1B00081D
:101BA400951F0008951F0008951F0008D51B000805
:101BB400951F0008951F0008951F0008C51D000803
:101BC400B94BC7F8B030E7E1B84BC7F8B030E3E140
:101BD400B44B5B6803F03F03C7F8AC30B14B5B68B0
:101BE40003F48003002B71D0AE4B5B689B09002289
:101BF400C7F89830C7F89C20D7F89830C3F3080387
:101C0400C7F890300023C7F89430D7E9244522461A
:101C14002B464FF000004FF00001590141EAD26118
:101C2400500102460B462146511A3964294663EB9A
:101C340001037B644FF000024FF00003D7E91089E1
:101C440049468B01414643EA916341468A01414634
:101C5400511AB963494663EB0103FB634FF0000279
:101C64004FF00003D7E90E894946CB00414643EAC9
:101C740051734146CA0010461946034622469B1832
:101C84003B632B460A4642EB03037B634FF000029F
:101C94004FF00003D7E90C4529464B02214643EA9D
:101CA400D15321464A0210461946D7F8AC300022D7
:101CB400C7F88830C7F88C20D7E92223FEF7A0FAAA
:101CC40002460B461346C7F8B43067E0754B5B68B1
:101CD4009B090022C7F88030C7F88420D7F88030E9
:101CE400C3F30803BB670023FB67D7E91E452246FD
:101CF4002B464FF000004FF00001590141EAD26138
:101D0400500102460B462146511AB962294663EB3B
:101D14000103FB624FF000024FF00003D7E90A8988
:101D240049468B01414643EA916341468A01414653
:101D3400B2EB010A494663EB010B4FF000024FF08E
:101D440000034FEACB0343EA5A734FEACA029246AE
:101D54009B4623461AEB03033B622B464BEB0303E0
:101D64007B624FF000024FF00003D7E90845294693
:101D74008B02214643EA915321468A0210461946B2
:101D8400D7F8AC3000223B677A67D7E91C23FEF70B
:101D940037FA02460B461346C7F8B430414B5B682A
:101DA4001B0C03F0030301335B00C7F8A830D7F81A
:101DB400B420D7F8A830B2FBF3F3C7F8B030EBE0A7
:101DC400384B5B6803F03F03C7F8AC30354B5B68B6
:101DD40003F48003002B6BD0324B5B689B09002219
:101DE400BB66FA66BB6EC3F308033B6600237B66DF
:101DF400D7E9184522462B464FF000004FF000016A
:101E0400590141EAD261500102460B462146511A5A
:101E1400B961294663EB0103FB614FF000024FF007
:101E24000003D7E906AB59468B01514643EA916357
:101E340051468A015146B2EB0108594663EB010948
:101E44004FF000024FF000034FEAC90343EA58730E
:101E54004FEAC80290469946234618EB03033B61B8
:101E64002B4649EB03037B614FF000024FF0000364
:101E7400D7E9044529464B02214643EAD15321467A
:101E84004A0210461946D7F8AC300022BB65FA6501
:101E9400D7E91623FEF7B4F902460B461346C7F8F2
:101EA400B43065E0003802400024F40000127A00E7
:101EB4003D4B5B689B09002218461146C0F308039A
:101EC4003B6500237B65D7E9148942464B464FF0B6
:101ED40000004FF00001590141EAD261500102466D
:101EE4000B464146511AB960494663EB0103FB6056
:101EF4004FF000024FF00003D7E902AB59468B01C3
:101F0400514643EA916351468A015146541A59464F
:101F140063EB01054FF000024FF00003EB0043EACE
:101F24005473E20014461D464346E3183B604B4697
:101F340045EB03037B604FF000024FF00003D7E949
:101F4400004529468B02214643EA915321468A02E1
:101F540010461946D7F8AC300022BB64FA64D7E9BE
:101F64001223FEF74DF902460B461346C7F8B43068
:101F74000D4B5B681B0F03F00703C7F8A430D7F8B9
:101F8400B420D7F8A430B2FBF3F3C7F8B03003E0C1
:101F9400064BC7F8B03000BFD7F8B0301846B83792
:101FA400BD46BDE8B08F00BF003802400024F400F5
:101FB40080B582B000AFFFF705F87860724B1B68FC
:101FC400714A43F00103136008E0FEF7FBFF024689
:101FD4007B68D31A022B01D90323D0E06A4B1B6818
:101FE40003F00203002BF0D0674B1B68664A43F0F2
:101FF40080031360FEF7E6FF7860634B00229A606B
:102004000AE0FEF7DFFF02467B68D31A41F288320A
:10201400934201D90323B2E05B4B9B6803F00C03AA
:10202400002BEED1FEF7CEFF7860574B1B68564A63
:1020340023F45023136008E0FEF7C4FF02467B68D4
:10204400D31A642B01D9032399E04F4B1B6803F483
:102054000033002BF0D1FEF7B5FF78604A4B1B68C4
:10206400494A23F08073136008E0FEF7ABFF024691
:102074007B68D31A022B01D9032380E0424B1B68EF
:1020840003F00073002BF0D1FEF79CFF78603E4B09
:102094001B683D4A23F08063136008E0FEF792FF5B
:1020A40002467B68D31A022B01D9032367E0364B1F
:1020B4001B6803F00063002BF0D1FEF783FF786008
:1020C400314B1B68304A23F08053136008E0FEF75D
:1020D40079FF02467B68D31A022B01D903234EE011
:1020E400294B1B6803F00053002BF0D1264B274AE1
:1020F4005A60254B254AC3F88420234B244AC3F84D
:102104008820214BDB68204A23F4F853D3601E4B0C
:10211400DB681D4A23F40053D3601B4BDB681A4A67
:1021240023F48043D360184BDB68174A43F41F033E
:10213400D360154BDB68144A43F40013D360124B8D
:10214400DB68114A43F48003D3600F4B5B6F0E4A84
:1021540023F0010353670C4B5B6F0B4A43F080730E
:1021640053670C4B0C4A1A600C4B1B681846FEF75D
:10217400E5FE0346002B01D0012300E000231846AE
:102184000837BD4680BD00BF00380240103000242F
:1021940010300004000000200024F400040000209B
:1021A40080B586B000AF78607B68002B01D1012335
:1021B4008DE27B681B6803F00103002B00F0838031
:1021C400944B9B6803F00C03042B19D0914B9B6830
:1021D40003F00C03082B06D18E4B5B6803F48003D9
:1021E400B3F5800F0CD08B4B9B6803F00C030C2BC6
:1021F40012D1884B5B6803F48003B3F5800F0BD1D5
:10220400844B1B6803F40033002B5BD07B685B6852
:10221400002B57D101235AE27B685B68B3F5803FFA
:1022240006D17C4B1B687B4A43F4803313601DE06A
:102234007B685B68B3F5A02F0CD1764B1B68754A9D
:1022440043F480231360734B1B68724A43F4803356
:1022540013600BE06F4B1B686E4A23F480331360EA
:102264006C4B1B686B4A23F4802313607B685B68A8
:10227400002B13D0FEF7A6FE386108E0FEF7A2FE9D
:1022840002463B69D31A642B01D903231FE2614B35
:102294001B6803F40033002BF0D014E0FEF792FE29
:1022A400386108E0FEF78EFE02463B69D31A642BC0
:1022B40001D903230BE2574B1B6803F40033002BB3
:1022C400F0D100E000BF7B681B6803F00203002B21
:1022D4006FD0504B9B6803F00C03002B17D04D4B71
:1022E4009B6803F00C03082B05D14A4B5B6803F48D
:1022F4008003002B0BD0474B9B6803F00C030C2B83
:102304001CD1444B5B6803F48003002B16D1414B72
:102314001B6803F00203002B05D07B68DB68012BEC
:1023240001D00123D3E13B4B1B6823F0F8027B6807
:102334001B69DB00374913430B603AE07B68DB68B9
:10234400002B20D0344B01221A60FEF73BFE38618B
:1023540008E0FEF737FE02463B69D31A022B01D987
:102364000323B4E12B4B1B6803F00203002BF0D0D2
:10237400284B1B6823F0F8027B681B69DB002549A6
:1023840013430B6015E0244B00221A60FEF71AFE7B
:10239400386108E0FEF716FE02463B69D31A022BA9
:1023A40001D9032393E11B4B1B6803F00203002BA9
:1023B400F0D17B681B6803F00803002B36D07B68E0
:1023C4005B69002B16D0154B01221A60FEF7FAFD4B
:1023D400386108E0FEF7F6FD02463B69D31A022B8A
:1023E40001D9032373E10B4B5B6F03F00203002B52
:1023F400F0D01BE0094B00221A60FEF7E3FD3861C0
:102404000EE0FEF7DFFD02463B69D31A022B07D923
:1024140003235CE10038024000004742800E47423B
:102424008A4B5B6F03F00203002BEAD17B681B68C5
:1024340003F00403002B00F097800023FB75834B0B
:102444001B6C03F08053002B0FD10023BB607F4B28
:102454001B6C7E4A43F0805313647C4B1B6C03F06B
:102464008053BB60BB680123FB75794B1B6803F485
:102474008073002B18D1764B1B68754A43F4807324
:102484001360FEF79FFD386108E0FEF79BFD0246EE
:102494003B69D31A022B01D9032318E16C4B1B6847
:1024A40003F48073002BF0D07B689B68012B06D16A
:1024B400664B1B6F654A43F0010313671CE07B689E
:1024C4009B68052B0CD1614B1B6F604A43F00403DE
:1024D40013675E4B1B6F5D4A43F0010313670BE008
:1024E4005A4B1B6F594A23F001031367574B1B6F59
:1024F400564A23F0040313677B689B68002B15D0AE
:10250400FEF760FD38610AE0FEF75CFD02463B69B8
:10251400D31A41F28832934201D90323D7E04B4BBB
:102524001B6F03F00203002BEED014E0FEF74AFD0C
:1025340038610AE0FEF746FD02463B69D31A41F2D0
:102544008832934201D90323C1E0404B1B6F03F04F
:102554000203002BEED1FB7D012B05D13B4B1B6C01
:102564003A4A23F0805313647B689B69002B00F084
:10257400AD80364B9B6803F00C03082B60D07B685E
:102584009B69022B45D1334B00221A60FEF71AFDDA
:10259400386108E0FEF716FD02463B69D31A022BA8
:1025A40001D9032393E0294B1B6803F00073002B2C
:1025B400F0D17B68DA697B681B6A1A437B685B6AC3
:1025C4009B011A437B689B6A5B08013B1B041A430B
:1025D4007B68DB6A1B061A437B681B6B1B071B4962
:1025E40013434B601B4B01221A60FEF7EBFC38616E
:1025F40008E0FEF7E7FC02463B69D31A022B01D937
:10260400032364E0114B1B6803F00073002BF0D02C
:102614005CE0104B00221A60FEF7D4FC386108E03D
:10262400FEF7D0FC02463B69D31A022B01D90323DF
:102634004DE0064B1B6803F00073002BF0D145E01E
:102644007B689B69012B07D1012340E000380240DD
:1026540000700040600047421F4B5B68FB607B6872
:102664009B69012B30D0FB6803F480027B68DB6933
:102674009A4229D1FB6803F03F027B681B6A9A42A5
:1026840022D1FA6847F6C07313407A68526A9201FD
:10269400934219D1FB6803F440327B689B6A5B0860
:1026A400013B1B049A420FD1FB6803F070627B6804
:1026B400DB6A1B069A4207D1FB6803F0E0427B68A1
:1026C4001B6B1B079A4201D0012300E0002318462C
:1026D4001837BD4680BD00BF0038024080B582B0C7
:1026E40000AF78607B68002B01D1012342E07B6856
:1026F40093F84130DBB2002B06D17B68002283F8CB
:1027040040207868FEF750FB7B68242283F8412040
:102714007B681B68DA687B681B6822F40052DA6005
:10272400786800F009FA7B681B681A697B681B6883
:1027340022F490421A617B681B685A697B681B68A3
:1027440022F02A025A617B681B68DA687B681B687E
:1027540042F40052DA607B6800225A647B682022CB
:1027640083F841207B68202283F842207B68002282
:102774005A63002318460837BD4680BD80B58AB029
:1027840002AFF860B9603B601346FB8000237B61B5
:10279400FB6893F84130DBB2202B75D1BB68002B6A
:1027A40002D0FB88002B01D101236EE0FB680022DC
:1027B4005A64FB68212283F84120FEF703FC786108
:1027C400FB68FA889A84FB68FA88DA84FB689B6859
:1027D400B3F5805F08D1FB681B69002B04D100238B
:1027E400FB61BB68BB6103E0BB68FB610023BB61A9
:1027F4002EE03B6800937B6900228021F86800F09A
:10280400DFF80346002B05D0FB68202283F8412023
:1028140003233AE0FB69002B0BD1BB691B881A46E2
:10282400FB681B68C2F308025A60BB690233BB61D0
:1028340007E0FB691A78FB681B685A60FB6901337F
:10284400FB61FB68DB8C9BB2013B9AB2FB68DA84C8
:10285400FB68DB8C9BB2002BCBD13B6800937B697C
:1028640000224021F86800F0ABF80346002B05D0A5
:10287400FB68202283F84120032306E0FB68202222
:1028840083F84120002300E0022318462037BD4688
:1028940080BD80B58AB002AFF860B9603B60134672
:1028A400FB8000237B61FB6893F84230DBB2202B72
:1028B40040F08180BB68002B02D0FB88002B01D143
:1028C400012379E0FB6800225A64FB68222283F822
:1028D4004220FB6800221A63FEF774FB7861FB68F0
:1028E400FA889A85FB68FA88DA85FB689B68B3F5F1
:1028F400805F08D1FB681B69002B04D10023FB61B6
:10290400BB68BB6103E0BB68FB610023BB6147E0BC
:102914003B6800937B6900222021F86800F050F89E
:102924000346002B05D0FB68202283F842200323B2
:1029340042E0FB69002B0CD1FB681B685B689BB20F
:10294400C3F308039AB2BB691A80BB690233BB6143
:102954001FE0FB689B68B3F5805F07D0FB689B684A
:10296400002B0AD1FB681B69002B06D1FB681B688E
:102974005B68DAB2FB691A7008E0FB681B685B6885
:10298400DBB203F07F03DAB2FB691A70FB6901332F
:10299400FB61FB68DB8D9BB2013B9AB2FB68DA8575
:1029A400FB68DB8D9BB2002BB2D1FB68202283F83D
:1029B4004220002300E0022318462037BD4680BD94
:1029C40080B586B000AFF860B9603B601346FB7118
:1029D4003BE03B6AB3F1FF3F37D0FEF7F3FA024620
:1029E4003B68D31A3A6A9A4202D33B6A002B01D15C
:1029F40003233AE0FB681B68DB6803F00403002B45
:102A040023D0BB68802B20D0BB68402B1DD0FB6833
:102A14001B681B6803F00803082B16D100237B6195
:102A2400FB681B681B687B61FB681B685B687B61D8
:102A34007B69F86800F01DF8FB6808225A64FB689B
:102A4400002283F8402001230FE0FB681B681A680A
:102A5400BB681340BA689A420CBF01230023DBB25F
:102A64001A46FB799A42B4D0002318461837BD465B
:102A740080BD80B495B000AF78607B681B680C3370
:102A84007B637B6B53E8003F3B633B6B23F49073A6
:102A9400FB647B681B680C33FA6C3A64FB63F96B68
:102AA4003A6C41E80023BB63BB6B002BE5D17B6828
:102AB4001B6814333B623B6A53E8003FFB61FB69CC
:102AC40023F00103BB647B681B681433BA6CFA629D
:102AD400BB62B96AFA6A41E800237B627B6A002B15
:102AE400E5D17B681B6B012B19D17B681B680C3308
:102AF400FB60FB6853E8003FBB60BB6823F0100336
:102B04007B647B681B680C337A6CBA617B6179697E
:102B1400BA6941E800233B613B69002BE5D17B683E
:102B2400202283F842207B6800221A6300BF5437B6
:102B3400BD465DF8047B70472DE9B04FC0B000AFCF
:102B4400C7F8F400D7F8F4301B681B6923F440502D
:102B5400D7F8F430D968D7F8F4301A6840EA01039A
:102B64001361D7F8F4309A68D7F8F4301B691A4324
:102B7400D7F8F4305B691A43D7F8F430DB691343B0
:102B8400C7F8F830D7F8F4301B68DB6823F4164133
:102B940021F00C01D7F8F4301A68D7F8F8300B4359
:102BA400D360D7F8F4301B685B6923F44070D7F81E
:102BB400F4309969D7F8F4301A6840EA0103536194
:102BC400D7F8F4301A688F4B9A4205D0D7F8F4300E
:102BD4001A688D4B9A4204D1FEF7A6FFC7F8FC0091
:102BE40003E0FEF78DFFC7F8FC00D7F8F430DB698B
:102BF400B3F5004F40F00C81D7F8FC300022C7F841
:102C0400E830C7F8EC20D7E93A4522462B4691181C
:102C1400B9655B41FB65D7E91623214612EB010830
:102C2400294643EB01094FF000024FF000034FEA3D
:102C3400C90343EA58734FEAC802904699462346AB
:102C440018EB0303C7F8E0302B4649EB0303C7F83E
:102C5400E430D7F8F4305B680022C7F8D830C7F8FE
:102C6400DC20D7E936120B46DB183B65134642EBF2
:102C740003037B65D7E91423D7E93801FDF7C0FACC
:102C840002460B46614BA3FB02235B091C01D7F8E8
:102C9400FC300022C7F8D030C7F8D420D7E93489F3
:102CA40042464B469118B9645B41FB64D7E9122351
:102CB400414612EB010A494643EB010B4FF0000277
:102CC4004FF000034FEACB0343EA5A734FEACA02B8
:102CD40092469B4643461AEB0303C7F8C8304B465B
:102CE4004BEB0303C7F8CC30D7F8F4305B68002211
:102CF400C7F8C030C7F8C420D7E930120B46DB1838
:102D04003B64134642EB03037B64D7E91023D7E902
:102D14003201FDF775FA02460B4611463B4BA3FB05
:102D240001235B09642202FB03F3CB1ADB0003F1EA
:102D34003202364BA3FB02235B095B0003F4F873F6
:102D44001C44D7F8FC300022C7F8B830C7F8BC20C0
:102D5400D7E92E8942464B469118B9635B41FB6320
:102D6400D7E90E2341465118396349464B417B63E9
:102D74004FF000024FF00003D7E90CAB5946CB00EB
:102D8400514643EA51735146CA0010461946034658
:102D940042469B18C7F8B0304B460A4642EB030341
:102DA400C7F8B430D7F8F4305B680022C7F8A8300D
:102DB400C7F8AC20D7E92A120B46DB18BB621346CE
:102DC40042EB0303FB62D7E90A23D7E92C01FDF7A1
:102DD40017FA02460B460D4BA3FB02135B09642151
:102DE40001FB03F3D31ADB003233084AA2FB0323AB
:102DF4005B0903F00702D7F8F4301B6822449A6099
:102E040006E100BF00100140001401401F85EB5192
:102E1400D7F8FC300022C7F8A030C7F8A420D7E9BF
:102E2400288942464B46911839625B417B62D7E957
:102E3400082341465418494643EB01054FF000026C
:102E44004FF00003EB0043EA5473E20014461D46BE
:102E54004346E318C7F898304B4645EB0303C7F8DD
:102E64009C30D7F8F4305B680022C7F89030C7F87C
:102E740094204FF000024FF00003D7E9244529467F
:102E84008B00214643EA917321468A00D7E9260143
:102E9400FDF7B6F902460B46604BA3FB02235B0920
:102EA4001C01D7F8FC300022C7F88830C7F88C2002
:102EB400D7E9228942464B469118B9615B41FB61CF
:102EC400D7E9062341465118396149464B417B6194
:102ED4004FF000024FF00003D7E904AB5946CB0092
:102EE400514643EA51735146CA00104619460346F7
:102EF40042469B18C7F880304B460A4642EB030310
:102F0400C7F88430D7F8F4305B680022BB67FA67EF
:102F14004FF000024FF00003D7E91E8949468B00A9
:102F2400414643EA917341468A00D7E92001FDF7FF
:102F340067F902460B461146384BA3FB01235B0994
:102F4400642202FB03F3CB1A1B013233334AA2FB84
:102F540003235B0903F0F0031C44D7F8FC30002280
:102F64003B677A67D7E91C8942464B469118B9609A
:102F74005B41FB60D7E90223414651183960494659
:102F84004B417B604FF000024FF00003D7E900ABE8
:102F94005946CB00514643EA51735146CA00104684
:102FA4001946034642469B18BB664B460A4642EB0B
:102FB4000303FB66D7F8F4305B6800223B667A664D
:102FC4004FF000024FF00003D7E9188949468B00FF
:102FD400414643EA917341468A00D7E91A01FDF755
:102FE4000FF902460B460D4BA3FB02135B09642148
:102FF40001FB03F3D31A1B013233084AA2FB032358
:103004005B0903F00F02D7F8F4301B6822449A607E
:1030140000BF07F58077BD46BDE8B08F1F85EB5133
:1030240002440346934200D1704703F8011BF9E7B9
:1030340070B50D4D0D4C641BA4100026A64209D199
:103044000B4D0C4C00F018F8641BA4100026A6428B
:1030540005D170BD55F8043B98470136EEE755F8A5
:10306400043B98470136F2E7BC300008BC30000846
:10307400BC300008C0300008F8B500BFF8BC08BC7C
:103084009E467047F8B500BFF8BC08BC9E46704722
:1030940010111214151600000000000000000000BA
:1030A40001020304060708090000000001020304EA
:0830B40080D1FF7F0100000044
:0430BC00E90100081E
:0430C000C50100083E
:0C30C4000024F4001000000001000000D7
:0400000508000EA938
:00000001FF
